:100000000C94DC000C9404010C9404010C94040185
:100010000C9404010C9404010C9404010C9404014C
:100020000C9404010C9404010C9404010C9404013C
:100030000C9404010C9404010C9404010C9404012C
:100040000C94BD090C9404010C942D0A0C94070A1D
:100050000C9404010C9404010C9404010C9404010C
:100060000C9404010C94040158012C017101270126
:100070008D012201AC011D01CD011801F201130116
:100080001A020E014602090176020401AB02FF00CA
:10009000E502FA002503F5006B03F000B903EB005D
:1000A0000E04E6006C04E100D404DC004705D70030
:1000B000C505D2005106CD00EB06C8009507C30068
:1000C0005008BE001F09B900020AB400FB0AAF00C5
:1000D0000D0CAA00380DA5007F0EA000E20F9B00BA
:1000E0006311960002139100C0148C009B168700C8
:1000F00092188200A41A7D00CD1C7800091F73009D
:1001000053216E00A5236900FA2564004A285F0088
:100110008F2A5A00C22C5500DE2E5000DD304B00D5
:10012000BB3246007434410008363C007537370056
:10013000BB383200DB392D00D83A2800B43B23000D
:10014000703C1E00113D1900993D14000B3E0F003C
:100150006A3E0A00B93E0500F93E000000000000BA
:10016000240027002A0000000000250028002B00A2
:1001700000000000230026002900040404040404F5
:100180000404020202020202030303030303010246
:100190000408102040800102040810200102040815
:1001A0001020000000080002010000030407000006
:1001B0000000000000005F0A11241FBECFEFD8E04E
:1001C000DEBFCDBF24E0AAEAB1E001C01D92A53A8E
:1001D000B207E1F711E0A0E0B1E0EAEEF8E202C018
:1001E00005900D92AA3AB107D9F710E0CCEDD0E016
:1001F00004C02197FE010E947B12CB3DD107C9F7B5
:100200000E941C0B0C9473140C940000833081F03A
:1002100028F4813099F08230A9F008958730A9F050
:100220008830C9F08430B1F4809180008F7D03C0A4
:10023000809180008F7780938000089584B58F77B8
:1002400084BD089584B58F7DFBCF8091B0008F77FA
:100250008093B00008958091B0008F7DF9CFCF9347
:10026000DF93282F30E0F901EE55FE4F8491F9011C
:10027000E257FE4FD491F901E658FE4FC491CC23CA
:10028000A1F081110E940601EC2FF0E0EE0FFF1F9C
:10029000E059FE4FA591B491EC91ED2381E090E0FF
:1002A00009F480E0DF91CF91089580E090E0FACFEB
:1002B0001F93CF93DF93282F30E0F901EE55FE4FC7
:1002C0008491F901E257FE4FD491F901E658FE4FAF
:1002D000C491CC23A9F0162F81110E940601EC2FA6
:1002E000F0E0EE0FFF1FEA59FE4FA591B4918FB7D2
:1002F000F894EC91111108C0D095DE23DC938FBFE8
:10030000DF91CF911F910895DE2BF8CFCF93DF932C
:1003100090E0FC01E257FE4F249186589E4FFC016D
:1003200084918823C9F090E0880F991FFC01E45A5A
:10033000FE4FA591B491FC01EA59FE4FC591D491AD
:1003400061110DC09FB7F8948C91209582238C93F6
:100350008881282328839FBFDF91CF910895623041
:1003600051F49FB7F8943C91822F809583238C930E
:10037000E8812E2BEFCF8FB7F894EC912E2B2C9396
:100380008FBFEACFFC01862F22E330E03383228344
:1003900020E931E03583248320E233E0378326836C
:1003A00028EE33E03187208713861286158614865F
:1003B00017861686118A108A138A128A158A148A59
:1003C000178A168A118E108E138E128E158E148E29
:1003D000178E168E11A210A213A212A215A214A299
:1003E00017A216A211A610A613A612A615A614A649
:1003F00017A616A611AA10AA13AA12AA15AA14AA19
:1004000017AA16AA11AE10AE12AE13AE14AEDF01CB
:10041000DD961D921D921D921C92139714961D92AB
:100420001D921D921C92139714961D921D921D925F
:100430001C921397149611961C921E92129621E00C
:1004400030E011963C932E93129611961C921E92B8
:1004500012961D921D921D921C92139760837183B8
:1004600062E00C9486013FB7F8948091B7019091B7
:10047000B801A091B901B091BA0126B5A89B05C0F9
:100480002F3F19F00196A11DB11D3FBFBA2FA92F13
:10049000982F8827BC01CD01620F711D811D911D10
:1004A00042E0660F771F881F991F4A95D1F708957C
:1004B0008F929F92AF92BF92CF92DF92EF92FF9274
:1004C0004B015C010E9433026B017C010E943302EC
:1004D0006C197D098E099F09683E7340810591055D
:1004E000A8F321E0821A9108A108B10888EEC80E8D
:1004F00083E0D81EE11CF11C81149104A104B10415
:1005000029F7FF90EF90DF90CF90BF90AF909F9032
:100510008F9008952FB7F8946091B3017091B40152
:100520008091B5019091B6012FBF0895AF92BF920F
:10053000CF92DF92EF92FF920F931F93CF93DF93AF
:100540006C017B018B01040F151FEB015E01AE18DE
:10055000BF08C017D10759F06991D601ED91FC9100
:100560000190F081E02DC6010995892B79F7C5012D
:10057000DF91CF911F910F91FF90EF90DF90CF907F
:10058000BF90AF900895FC01538D448D252F30E02E
:10059000842F90E0821B930B541710F0CF96089590
:1005A00001970895FC01918D828D981761F0A28DBD
:1005B000AE0FBF2FB11D5D968C91928D9F5F9F7383
:1005C000928F90E008958FEF9FEF0895FC01918D39
:1005D000828D981731F0828DE80FF11D858D90E0A6
:1005E00008958FEF9FEF0895FC01918D228D892F43
:1005F00090E0805C9F4F821B91098F73992708952B
:100600008BEB91E00E94F40221E0892B09F420E0B9
:10061000822F089580E090E0892B29F00E9400034A
:1006200081110C9400000895FC01A48DA80FB92F2E
:10063000B11DA35ABF4F2C91848D90E001968F730A
:100640009927848FA689B7892C93A089B1898C9129
:10065000837080648C93938D848D981306C0028878
:10066000F389E02D80818F7D80830895EF92FF9242
:100670000F931F93CF93DF93EC0181E0888F9B8DC5
:100680008C8D98131AC0E889F989808185FF15C07F
:100690009FB7F894EE89FF896083E889F9898081A2
:1006A0008370806480839FBF81E090E0DF91CF9171
:1006B0001F910F91FF90EF900895F62E0B8D10E093
:1006C0000F5F1F4F0F731127E02E8C8D8E110CC002
:1006D0000FB607FCFACFE889F989808185FFF5CF4D
:1006E000CE010E941403F1CFEB8DEC0FFD2FF11D15
:1006F000E35AFF4FF0829FB7F8940B8FEA89FB898A
:1007000080818062CFCFCF93DF93EC01888D8823E7
:10071000B9F0AA89BB89E889F9898C9185FD03C064
:10072000808186FD0DC00FB607FCF7CF8C9185FF49
:10073000F2CF808185FFEDCFCE010E941403E9CF77
:10074000DF91CF9108954F925F926F927F928F9237
:100750009F92AF92BF92CF92DF92EF92FF920F9350
:100760001F93CF93DF93FC012081318137FDE4C0DB
:10077000EC01822F0E942F016C01EA84FB84BB24D0
:10078000B3948E159F0509F0B12C0E948A028E0148
:100790000F5B1F4FF8016083718382839383CE14B4
:1007A000DF0431F42A813B8137FF02C021E02BAF07
:1007B0002CADFE01FD96B2123EC0C080D180E28019
:1007C000F3802B013C014C185D086E087F08CA803D
:1007D000DB80D7FE03C0D194C194D1080D2C000C4E
:1007E000EE08FF084C145D046E047F0408F0BBAEF5
:1007F000DBAC7E01F5E4EF0EF11CF7018080918007
:10080000A280B3809B01AC01281939094A095B0910
:1008100049015A0128AD39AD2230310509F49DC096
:1008200084F42115310529F12130310509F466C020
:1008300019AE18AE81C06083718382839383BCAE8E
:10084000D7CF2630310509F4DFC02730310509F450
:100850000FC12330310561F7DD2009F489C021E0A3
:1008600030E039AF28AFF7016083718382839383CF
:1008700063C08AAD811110C088859985B0E0A0E081
:1008800088159905AA05BB0538F4EEA9FFA930978C
:1008900019F081E08AAF0995DD2009F44DC081E0AF
:1008A00090E099AF88AFF80180819181A281B381F6
:1008B000F70180839183A283B383FE01E75BFF4F3F
:1008C00011821082EC85FD85309709F00995EE853F
:1008D000FF85309789F188899989DF91CF911F91A0
:1008E0000F91FF90EF90DF90CF90BF90AF909F90CF
:1008F0008F907F906F905F904F90099422E030E04E
:10090000DD2009F4AECF8E819F81B0E0A0E0881594
:100910009905AA05BB0580F4ECA1FDA1309709F06B
:100920000995EEA1FFA1309719F088A599A5099521
:1009300086E090E099AF88AFDF91CF911F910F9142
:10094000FF90EF90DF90CF90BF90AF909F908F90EF
:100950007F906F905F904F900895FE01E75BFF4F8F
:100960008081918101969183808383E090E0E2CF42
:100970008E01075B1F4FF801808191814C815D8161
:1009800070E060E084169506A606B70630F432964D
:10099000208131812817390779F681309105D1F40A
:1009A000EA89FB89309709F00995EC89FD89309730
:1009B00019F08E899F89099519AE18AEF801118238
:1009C00010820E948A02F70160837183828393837D
:1009D0001AAEB2CF029761F4E88DF98D309709F025
:1009E0000995EA8DFB8D309739F38C8D9D8DE3CF82
:1009F000EE8DFF8D309709F00995E8A1F9A13097A8
:100A0000D9F28AA19BA1D7CFD11003C087E090E093
:100A100091CF7E01FFE4EF0EF11CF7018080918001
:100A2000A280B380681979098A099B09329780806E
:100A30009180B12CA12C681579058A059B0508F4D5
:100A40007BCFE8A9F9A9309709F00995EAA9FBA994
:100A5000309719F08CA99DA90995F80180819181A1
:100A6000A281B381F70180839183A283B38364CF92
:100A7000EAA5FBA5309709F00995ECA5FDA53097EF
:100A800019F08EA59FA5099519AE18AEFE01E75B7A
:100A9000FF4F95CF089590E080E0089560E082E1F7
:100AA0000E94580160E083E10E9458011092AA015F
:100AB000089560E083E10E94580161E082E10E94B4
:100AC000580181E08093AA01089560E082E10E94CC
:100AD000580161E083E10E94580181E08093AA01FE
:100AE00008958F929F92AF92BF92EF92FF920F93D1
:100AF0001F93CF93DF93CDB7DEB7A1970FB6F894CE
:100B0000DEBF0FBECDBF7C01FA01CB0119A222309E
:100B100008F42AE08E010F5D1F4F822E912CB12C1C
:100B2000A12CBF01A50194010E945912F901CA012B
:100B30006A3074F5605DD8016E938D01232B242BF0
:100B4000252B79F790E080E0109789F0FD01019066
:100B50000020E9F73197AF014A1B5B0BD701ED91FC
:100B6000FC910280F381E02DB801C7010995A1969F
:100B70000FB6F894DEBF0FBECDBFDF91CF911F91AE
:100B80000F91FF90EF90BF90AF909F908F9008953E
:100B9000695CD1CFFC0101900020E9F73197AF01EA
:100BA000481B590BBC0187E992E00C949602CF9246
:100BB000DF92EF92FF920F931F93CF93DF936B011E
:100BC000770FEE08FF08F7FE1FC0EC01E881F981FE
:100BD0000190F081E02D6DE209958C0144275527A5
:100BE000BA014C195D096E097F092AE0CE010E9405
:100BF0007105800F911FDF91CF911F910F91FF9091
:100C0000EF90DF90CF9008952AE0B701A601DF9121
:100C1000CF911F910F91FF90EF90DF90CF900C94A8
:100C2000710588E291E00E94CA056091000170910F
:100C3000010180910201909103010E941E1287E937
:100C400092E00E94D70587EA91E00C94CA05CF9301
:100C5000DF93EC0160E08E810E94580161E08E819B
:100C60000E94580160E08E810E9458018BE891E05B
:100C70000197F1F7DF91CF910895CF92DF92EF9234
:100C8000FF920F931F93CF93DF936C017C0187E05A
:100C9000E80EF11CD0E0C0E0062F10E0B8010C2EE9
:100CA00002C0759567950A94E2F76170F70181912A
:100CB0007F010E9458012196C430D10579F7C60101
:100CC000DF91CF911F910F91FF90EF90DF90CF9028
:100CD0000C942706CF92DF92EF92FF920F931F930F
:100CE000CF93DF93EC01F62E642F8C810E94580184
:100CF0008D818F3F19F060E00E9458010F2D10E0A8
:100D00008F8584FF25C06E0187E0C80ED11CF12CB1
:100D1000E12CB8010E2C02C0759567950A94E2F794
:100D20006170F60181916F010E945801FFEFEF1A87
:100D3000FF0A88E0E816F10461F7CE01DF91CF9158
:100D40001F910F91FF90EF90DF90CF900C942706AA
:100D5000B80184E0759567958A95E1F7CE010E9408
:100D60003D066F2DCE01DF91CF911F910F91FF9026
:100D7000EF90DF90CF900C943D0640E0682F87E91C
:100D800092E00C946A06CF93DF93823029F490911D
:100D9000A60298609093A6028093AA021092AB02DA
:100DA00080E48093AC0280E18093AD0280E5809383
:100DB000AE0261E080919B020E94860180919C02BC
:100DC0008F3F19F061E00E94860161E080919D02F1
:100DD0000E948601C7E9D2E09E01275932408091E6
:100DE000A60284FD0BC084E090E021962817390705
:100DF00044F461E08E810E948601EECF88E090E0AD
:100E0000F4CF8BE39DE00197F1F760E080919B02C6
:100E10000E94580160E080919D020E9458018091DB
:100E20009C028F3F19F060E00E9458018091A60259
:100E300084FD39C063E087E992E00E943D06CBE47F
:100E4000D6E4CE010197F1F763E087E992E00E94D2
:100E50003D062197F1F763E087E992E00E943D06A5
:100E600083E592E00197F1F762E087E992E00E9462
:100E70003D068091A60280620E94BD0684E08093B8
:100E8000A7028CE00E94BD0681E00E94BD068BE3B4
:100E90009FE10197F1F782E08093A80286E0DF915D
:100EA000CF910C94BD0680620E94BD068BE496E44F
:100EB0000197F1F78091A60280620E94BD0683E54A
:100EC00092E00197F1F78091A60280620E94BD0630
:100ED000D0CF9091AA02691710F06FEF690FE62F3B
:100EE000F0E0E956FD4F9489890F80680C94BD06A7
:100EF000CF93C091AF0181E0C827C093AF0160E0FC
:100F000080E00E946907CC2319F0CF910C94110660
:100F10008EE291E0CF910C94CA05CF92DF92EF92CE
:100F2000FF92C0900001D0900101E0900201F0908A
:100F3000030120E030E040E85FE3882351F1C7017E
:100F4000B6010E94401160930001709301018093EB
:100F500002019093030160E080E00E94690788E34A
:100F600091E00E94CA056091000170910101809199
:100F70000201909103010E941E1287E992E00E94F3
:100F8000D70587EA91E0FF90EF90DF90CF900C9427
:100F9000CA05C701B6010E943F11D5CF20E030E05D
:100FA0004CE853E4609100017091010180910201CD
:100FB000909103010E94CE0F87FF03C081E00C9443
:100FC0008D07089520E030E048EC52E46091000184
:100FD0007091010180910201909103010E945412CD
:100FE00018161CF480E00C948D0708950F931F933E
:100FF000CF93DF938C01EB0166E970E080E090E035
:101000000E94580261E083E00E946907F801448170
:1010100055816081718187E992E00E94960261E0CA
:101020008CE00E9469074C815D816881798187E944
:1010300092E0DF91CF911F910F910C94960260E0A6
:1010400080E00E9469078091AF01882331F188E236
:1010500091E00E94CA0560910001709101018091A8
:101060000201909103010E941E1287E992E00E9402
:10107000D70587EA91E00E94CA0561E080E00E94FE
:1010800069078BE491E00E94CA0561E089E00E9453
:10109000690785E591E00C94CA058EE391E0EBCFFA
:1010A00041E00E946A0681E090E00895CF9360914C
:1010B00000017091010180910201909103010E9451
:1010C0002512C62F90E080E00E94F210C81729F088
:1010D0006C2F90E080E00E94FA1060E080E00E94B7
:1010E00069078091AF01882319F0CF910C94110604
:1010F0008EE391E0CF910C94CA05FC01808191812F
:10110000009711F00C941D130895EF92FF920F9326
:101110001F93CF93DF93EC017B01198218821B820E
:101120001A821D821C82FB0101900020E9F7319791
:101130008F01061B170BB8016F5F7F4F90E080E0B7
:101140000E94A6130097B9F0998388831B830A83B2
:101150002C813D81232B11F4FC0110821D830C8313
:10116000B70188819981DF91CF911F910F91FF90F5
:10117000EF900C946C1488819981009711F00E9473
:101180001D13198218821D821C821B821A82DF9114
:10119000CF911F910F91FF90EF900895CF93DF9320
:1011A000CDB7DEB72C970FB6F894DEBF0FBECDBF1C
:1011B0001092B1011092B0010E9465056DE571E0D9
:1011C000CE0107960E94850861E671E0CE01019686
:1011D0000E948508BE01695F7F4FCE0101960E9483
:1011E000F607CE0101960E947D08CE0107960E9467
:1011F0007D082C960FB6F894DEBF0FBECDBFDF91F1
:10120000CF910895CF93DF93CDB7DEB72C970FB66C
:10121000F894DEBF0FBECDBF1092B1018091AA013C
:10122000882369F00E944E050E941F082C960FB675
:10123000F894DEBF0FBECDBFDF91CF9108950E941D
:10124000590567E671E0CE0107960E9485086CE6B5
:1012500071E0CE0101960E948508BE01695F7F4F53
:10126000CE0101960E94F607CE0101960E947D08EC
:10127000CE0107960E947D08D9CFCF93DF93CDB7DB
:10128000DEB72C970FB6F894DEBF0FBECDBF8091AE
:10129000B10191E089278093B101882341F1109237
:1012A000AF010E94780763E771E0CE0107960E94C4
:1012B000850868E771E0CE0101960E948508BE01AD
:1012C000695F7F4FCE0101960E94F607CE0101961D
:1012D0000E947D08CE0107960E947D082C960FB6CD
:1012E000F894DEBF0FBECDBFDF91CF9108950E946D
:1012F0004E050E9478070E941F08F0CFCF93DF931E
:10130000CDB7DEB72C970FB6F894DEBF0FBECDBFBA
:101310008091B00191E089278093B0011092B101D2
:10132000882331F10E94590567E671E0CE010796E6
:101330000E9485086EE771E0CE0101960E94850843
:10134000BE01695F7F4FCE0101960E94F607CE0174
:1013500001960E947D08CE0107960E947D082C967A
:101360000FB6F894DEBF0FBECDBFDF91CF910895C9
:101370000E944E050E941F08F2CF1F920F920FB6D7
:101380000F9211242F933F938F939F93AF93BF930B
:101390008091B3019091B401A091B501B091B601D3
:1013A0003091B20123E0230F2D3758F50196A11D8E
:1013B000B11D2093B2018093B3019093B401A09327
:1013C000B501B093B6018091B7019091B801A09199
:1013D000B901B091BA010196A11DB11D8093B70169
:1013E0009093B801A093B901B093BA01BF91AF91A6
:1013F0009F918F913F912F910F900FBE0F901F9053
:10140000189526E8230F0296A11DB11DD2CF1F9279
:101410000F920FB60F9211242F933F934F935F9328
:101420006F937F938F939F93AF93BF93EF93FF93AC
:101430008BEB91E00E941403FF91EF91BF91AF916C
:101440009F918F917F916F915F914F913F912F91DC
:101450000F900FBE0F901F9018951F920F920FB60E
:101460000F9211242F938F939F93EF93FF93E0910B
:10147000CB01F091CC018081E091D101F091D201BA
:1014800082FD1BC090818091D4018F5F8F7320916A
:10149000D501821741F0E091D401F0E0E554FE4F10
:1014A000958F8093D401FF91EF919F918F912F9110
:1014B0000F900FBE0F901F9018958081F4CFCF92A0
:1014C000DF92EF92FF92EBEBF1E01382128288EE53
:1014D000C82E83E0D82EE12CF12CC482D582E6827E
:1014E000F7828EE091E09183808385EC90E0958790
:1014F000848784EC90E09787868780EC90E0918BDE
:10150000808B81EC90E0938B828B82EC90E0958BCA
:10151000848B86EC90E0978B868B118E128E138EC7
:10152000148E6AE070E08EE494E00E94C2016BE0E9
:1015300070E08BEF93E00E94C2016CE070E088EAFB
:1015400093E00E94C2016EE070E085E593E00E94A6
:10155000C2016FE070E082E093E00E94C20160E1AE
:1015600070E08FEA92E00E94C201E7E9F2E01382A4
:10157000128280E291E09183808387E084838FEF01
:1015800085838DE0868386E0878385E0808784E09D
:10159000818783E0828713861486158616861786D0
:1015A00081E00E94C30660E081E10E948601E3E9D8
:1015B000F2E081E190E09183808381E090E0938389
:1015C0008283E0E6F2E08CE592E0958F848F80E004
:1015D00091E0978F868F88E592E091A380A312A275
:1015E00013A214A215A280E090E0AFE7B3E486A3B3
:1015F00097A3A0A7B1A782E490E6A5E6BBE380830A
:101600009183A283B3838AE097EDA3EABCE384834A
:101610009583A683B78380E090E0A0E8BEE380874F
:101620009187A287B387C2A6D3A6E4A6F5A6FF90AA
:10163000EF90DF90CF900895CF93DF93CDB7DEB7D3
:101640002E970FB6F894DEBF0FBECDBF789484B549
:10165000826084BD84B5816084BD85B5826085BDAE
:1016600085B5816085BD80916E00816080936E003C
:10167000109281008091810082608093810080912E
:1016800081008160809381008091800081608093DF
:1016900080008091B10084608093B1008091B0009F
:1016A00081608093B00080917A00846080937A009A
:1016B00080917A00826080937A0080917A008160C4
:1016C00080937A0080917A00806880937A001092EB
:1016D000C100E091CB01F091CC0182E08083E091E8
:1016E000C701F091C8011082E091C901F091CA01CF
:1016F0008FEC80831092D301E091CF01F091D00163
:1017000086E08083E091CD01F091CE0180818061FF
:101710008083E091CD01F091CE018081886080834B
:10172000E091CD01F091CE01808180688083E091CD
:10173000CD01F091CE0180818F7D808382E00E9477
:10174000C30690E080E00E94F210898381E090E07F
:101750000E94F2108A8309811A81B8018BEB91E013
:101760000E94D705C80184569109853B910508F070
:10177000E0C1B801110F880B990B0E94D50F60933F
:1017800000017093010180930201909303018EEC9C
:1017900097E0909368038093670382EE97E09093BD
:1017A00015038093140388E797E09093C202809317
:1017B000C10286E598E09093E0028093DF0282E028
:1017C00099E090930E0480930D048EE799E0909336
:1017D000BB038093BA038DE399E0909361048093F7
:1017E00060048EEC98E090937F0480937E0488EEF2
:1017F00093E090939C0480939B04609158027091B5
:10180000590280915A0290915B020E94251282E057
:101810000E94860160E082E00E94580161E083E15D
:101820000E94860161E082E10E94860160E089E019
:101830000E94860180E090E0A0E0B0E48093740212
:1018400090937502A0937602B0937702809378020A
:1018500090937902A0937A02B0937B0282E390E0A6
:10186000A0E0B0E080938A0290938B02A0938C0258
:10187000B0938D0268EE73E080E090E00E94580221
:1018800082E00E94C30684E891E00E94CA0561E0FC
:1018900080E00E94690784E991E00E94CA0564EC37
:1018A00079E080E090E00E94580281E00E94BD064D
:1018B0008BE39FE10197F1F70E941F080E948A02C3
:1018C0006B837C838D839E8320E130E070E060E059
:1018D000809193028E3008F08E50877080648093E0
:1018E0007C0080917A00806480937A0080917A00F5
:1018F00086FDFCCF8091780090917900680F791F68
:101900002150310929F724E030E041E050E0CA01DC
:10191000243F310509F41EC1D901A859BF4FFD016B
:10192000059114914F5F5F4FF9013496601771076D
:101930000CF00EC10197880F991F880F991F8C0119
:1019400006591F4FF801A590B49088599F4FFC018C
:1019500045915491F901E659FF4FC590D490F80193
:1019600085909490FD01E590F490FC016590749051
:10197000641B750B072E000C880B990B0E94D50F6A
:101980001B012C01B60168197909072E000C880B80
:10199000990B0E94D50F9B01AC01C201B1010E94BD
:1019A00034101B012C01B70166197709072E000CB2
:1019B000880B990B0E94D50F9B01AC01C201B101AC
:1019C0000E94AC116B017C01B501BB0C880B990B1B
:1019D0000E94D50F9B01AC01C701B6010E944011C6
:1019E0000E941E12072E000C880B990B0E94D50F27
:1019F00060935C0270935D0280935E0290935F023D
:101A00008BEF93E00E94A30388EA93E00E94A30374
:101A10008EE494E00E94A30385E593E00E94A30373
:101A200082E093E00E94A3038FEA92E00E94A30366
:101A30008091AF01882309F47EC2809192028823AD
:101A4000E1F0109292020E948A0260938E027093DB
:101A50008F02809390029093910210926C021092E8
:101A60006D0210926E0210926F021092700210922C
:101A700071021092720210927302C0907402D090A0
:101A80007502E0907602F090770220E030E0A90144
:101A9000C701B6010E94CE0F882309F463C0E0910C
:101AA0007E02F0917F02A0917C02B0917D022D9187
:101AB0003D914D915C9160817181828193810E9401
:101AC0003F119B01AC01C701B6010E94CE0F87FFF9
:101AD00049C08091860290918702A0918802B091BE
:101AE0008902E0918002F091810280839183A28338
:101AF000B3830E948A0260938E0270938F02809358
:101B000090029093910260915802709159028091D5
:101B10005A0290915B020E941E126B018B0161E0E0
:101B200082E00E948601C114D10409F046C160E040
:101B300048C1609100017091010180910201909172
:101B400003010E941E1290E080E00E94FA101FCE56
:101B50009F01DDCEEAE5F1E08591949160E070E0CF
:101B6000CB013ECFC0907802D0907902E0907A020B
:101B7000F0907B0220E030E0A901C701B6010E948D
:101B8000CE0F882319F1E0917C02F0917D02A091A3
:101B90007E02B0917F022D913D914D915C916081CB
:101BA0007181828193810E943F119B01AC01C70129
:101BB000B6010E94CE0F87FF09C0809182029091EA
:101BC0008302A0918402B09185028BCF0E948A0289
:101BD00000918E0210918F0220919002309191021B
:101BE0004B015C01801A910AA20AB30A80918A0211
:101BF00090918B02A0918C02B0918D02881699066B
:101C0000AA06BB0608F47FCF0E948A0260938E0268
:101C100070938F028093900290939102E0917E02E4
:101C2000F0917F02A0917C02B0917D022D913D91B7
:101C30004D915C9160817181828193810E943F11FD
:101C40006B017C012091700230917102409172020F
:101C5000509173022F83388749875A87C501B40191
:101C60000E94D30F2B013C012F81388549855A856D
:101C7000C701B6010E94401120E030E040E05FE380
:101C80000E943410A30192010E94341020E030E041
:101C90004AE754E40E94AC1120916C0230916D022D
:101CA00040916E0250916F020E9440114B015C0105
:101CB00080926C0290926D02A0926E02B0926F02BE
:101CC000C0927002D0927102E0927202F09273029E
:101CD0002091600230916102409162025091630252
:101CE000C701B6010E9434106B877C878D879E8761
:101CF0002091640230916502409166025091670222
:101D0000C501B4010E9434109B01AC016B857C8538
:101D10008D859E850E9440114B015C012F81388585
:101D200049855A85C701B6010E943F11A30192015E
:101D30000E94AC1120E030E04AE754E40E94AC116C
:101D4000209168023091690240916A0250916B02C1
:101D50000E9434109B01AC01C501B4010E944011E6
:101D60005B016C01E0908202F0908302009184029A
:101D7000109185029701A8010E94CE0F87FD12C025
:101D8000E0908602F090870200918802109189020B
:101D90009701A801B501C6010E945412181614F04B
:101DA00075018601E0918002F0918102C701D8019E
:101DB00080839183A283B383A6CE0F3F110529F4BC
:101DC00061E082E00E94580126C0E4EAF1E08491DB
:101DD000833009F496C048F48130C9F0823009F4A8
:101DE0008BC00038110564F7A2CE873009F493C088
:101DF000883009F498C08430A1F780918000806217
:101E000080938000D0928B00C0928A0004C084B579
:101E1000806884BDC7BC8091AB019091AC01A0915A
:101E2000AD01B091AE012B813C814D815E81281BBB
:101E3000390B4A0B5B0BDA01C901853F9140A105C3
:101E4000B10530F18B819C81AD81BE818093AB0166
:101E50009093AC01A093AD01B093AE0160E08CE033
:101E60000E94690784EA91E00E94CA0560E08CE064
:101E70000E94690760915C0270915D0280915E0230
:101E800090915F020E941E1287E992E00E94D7059E
:101E90008091B101882309F46FC020E030E040E276
:101EA00051E460915C0270915D0280915E029091BC
:101EB0005F020E9440112091000130910101409188
:101EC0000201509103010E94541287FD52C00E94EA
:101ED00065056EE170E080E090E00E945802A0E0AD
:101EE000B0E0AB2B09F4EACC0E940003882309F48C
:101EF000E5CC0E940000E2CC84B5806284BDC8BC01
:101F00008ACF80918000806880938000D092890081
:101F1000C092880080CF8091B00080688093B0002C
:101F2000C092B30078CF8091B00080628093B000FF
:101F3000C092B40070CFF1E0F09392020E948A0246
:101F400060938E0270938F0280939002909391021F
:101F500010926C0210926D0210926E0210926F023B
:101F6000109270021092710210927202109273021B
:101F7000DECD0E944E05ADCF8091B001882309F4DB
:101F8000A8CF89E00E942F01019709F0A2CF1092FB
:101F9000B0010E944E050E941F089BCF0E941010A6
:101FA00008F481E00895E89409C097FB3EF4909509
:101FB0008095709561957F4F8F4F9F4F9923A9F022
:101FC000F92F96E9BB279395F695879577956795B1
:101FD000B795F111F8CFFAF4BB0F11F460FF1BC0F5
:101FE0006F5F7F4F8F4F9F4F16C0882311F096E988
:101FF00011C0772321F09EE8872F762F05C0662336
:1020000071F096E8862F70E060E02AF09A95660FEE
:10201000771F881FDAF7880F9695879597F90895A7
:10202000990F0008550FAA0BE0E8FEEF16161706E9
:10203000E807F907C0F012161306E407F50798F051
:10204000621B730B840B950B39F40A2661F0232B6A
:10205000242B252B21F408950A2609F4A140A695E6
:102060008FEF811D811D08950E9447100C94B810B8
:102070000E94AA1038F00E94B11020F0952311F0B0
:102080000C94A1100C94A71011240C94EC100E9435
:10209000C91070F3959FC1F3950F50E0551F629FD3
:1020A000F001729FBB27F00DB11D639FAA27F00DB1
:1020B000B11DAA1F649F6627B00DA11D661F829FD8
:1020C0002227B00DA11D621F739FB00DA11D621FBD
:1020D000839FA00D611D221F749F3327A00D611DDA
:1020E000231F849F600D211D822F762F6A2F1124BC
:1020F0009F5750409AF0F1F088234AF0EE0FFF1FEF
:10210000BB1F661F771F881F91505040A9F79E3F45
:10211000510580F00C94A1100C94EC105F3FE4F397
:10212000983ED4F3869577956795B795F795E7959B
:102130009F5FC1F7FE2B880F911D9695879597F9A4
:10214000089597F99F6780E870E060E008959FEF39
:1021500080EC089500240A9416161706180609063E
:10216000089500240A94121613061406050608950D
:10217000092E0394000C11F4882352F0BB0F40F495
:10218000BF2B11F460FF04C06F5F7F4F8F4F9F4FD5
:10219000089557FD9058440F551F59F05F3F71F057
:1021A0004795880F97FB991F61F09F3F79F08795BE
:1021B0000895121613061406551FF2CF4695F1DF47
:1021C00008C0161617061806991FF1CF86957105D7
:1021D000610508940895E894BB2766277727CB010B
:1021E00097F90895F999FECF92BD81BDF89A992784
:1021F00080B50895262FF999FECF1FBA92BD81BDF3
:1022000020BD0FB6F894FA9AF99A0FBE0196089578
:102210002F923F924F925F926F927F928F929F92F6
:10222000AF92BF92CF92DF92EF92FF920F931F93E4
:10223000CF93DF93CDB7DEB7CA1BDB0B0FB6F89495
:10224000DEBF0FBECDBF09942A88398848885F84D5
:102250006E847D848C849B84AA84B984C884DF8046
:10226000EE80FD800C811B81AA81B981CE0FD11D2A
:102270000FB6F894DEBF0FBECDBFED0108955058E4
:10228000BB27AA270E9457110C94B8100E94AA10CD
:1022900038F00E94B11020F039F49F3F19F426F471
:1022A0000C94A7100EF4E095E7FB0C94A110E92F15
:1022B0000E94C91058F3BA1762077307840795077D
:1022C00020F079F4A6F50C94EB100EF4E0950B2EAB
:1022D000BA2FA02D0B01B90190010C01CA01A00178
:1022E0001124FF27591B99F0593F50F4503E68F1D3
:1022F0001A16F040A22F232F342F4427585FF3CF14
:10230000469537952795A795F0405395C9F77EF4E4
:102310001F16BA0B620B730B840BBAF09150A1F02D
:10232000FF0FBB1F661F771F881FC2F70EC0BA0FB3
:10233000621F731F841F48F4879577956795B7953B
:10234000F7959E3F08F0B0CF9395880F08F0992736
:10235000EE0F9795879508950E94C0110C94B810C0
:102360000E94B11058F00E94AA1040F029F45F3F7B
:1023700029F00C94A11051110C94EC100C94A7109E
:102380000E94C91068F39923B1F3552391F3951B6B
:10239000550BBB27AA2762177307840738F09F5F86
:1023A0005F4F220F331F441FAA1FA9F335D00E2EF3
:1023B0003AF0E0E832D091505040E695001CCAF760
:1023C0002BD0FE2F29D0660F771F881FBB1F261723
:1023D00037074807AB07B0E809F0BB0B802DBF01FA
:1023E000FF2793585F4F3AF09E3F510578F00C94C9
:1023F000A1100C94EC105F3FE4F3983ED4F3869563
:1024000077956795B795F7959F5FC9F7880F911DE9
:102410009695879597F90895E1E0660F771F881FD5
:10242000BB1F621773078407BA0720F0621B730B88
:10243000840BBA0BEE1F88F7E09508950E942512D1
:102440006894B1110C94EC1008950E94D11088F09A
:102450009F5798F0B92F9927B751B0F0E1F0660F68
:10246000771F881F991F1AF0BA95C9F714C0B130A9
:1024700091F00E94EB10B1E008950C94EB10672FDF
:10248000782F8827B85F39F0B93FCCF386957795D8
:102490006795B395D9F73EF49095809570956195C1
:1024A0007F4F8F4F9F4F08950E94101008F48FEFB9
:1024B0000895A1E21A2EAA1BBB1BFD010DC0AA1F85
:1024C000BB1FEE1FFF1FA217B307E407F50720F09D
:1024D000A21BB30BE40BF50B661F771F881F991F18
:1024E0001A9469F760957095809590959B01AC0161
:1024F000BD01CF010895EE0FFF1F0590F491E02D6F
:1025000009940F931F93CF93DF938230910510F4BA
:1025100082E090E0E091A304F091A40430E020E098
:10252000B0E0A0E0309799F42115310509F44AC0D4
:10253000281B390B24303105D8F58A819B81611520
:10254000710589F1FB0193838283FE0111C04081F3
:1025500051810281138148175907E0F04817590744
:1025600099F4109761F012960C93129713961C939E
:102570003296CF01DF91CF911F910F910895009373
:10258000A3041093A404F4CF2115310551F0421790
:10259000530738F0A901DB019A01BD01DF01F80101
:1025A000C1CFEF01F9CF9093A4048093A304CDCFC2
:1025B000FE01E20FF31F8193919322503109398379
:1025C0002883D7CF2091A1043091A204232B41F47A
:1025D00020910601309107013093A2042093A104B9
:1025E00020910401309105012115310541F42DB7E9
:1025F0003EB74091080150910901241B350BE09131
:10260000A104F091A204E217F307A0F42E1B3F0BE4
:102610002817390778F0AC014E5F5F4F2417350754
:1026200048F04E0F5F1F5093A2044093A104819382
:1026300091939FCFF0E0E0E09CCFCF93DF930097A2
:10264000E9F0FC01329713821282A091A304B091A9
:10265000A404ED0130E020E01097A1F42081318145
:10266000820F931F2091A1043091A20428173907EB
:1026700009F061C0F093A204E093A104DF91CF912F
:102680000895EA01CE17DF07E8F54A815B819E01D4
:1026900041155105B1F7E901FB83EA83499159914D
:1026A000C40FD51FEC17FD0761F48081918102965C
:1026B000840F951FE90199838883828193819B838D
:1026C0008A83F0E0E0E012968D919C911397009739
:1026D000B9F52D913C911197CD010296820F931F70
:1026E0002091A1043091A2042817390739F63097B8
:1026F00051F51092A4041092A304B093A204A093E5
:10270000A104BCCFD383C28340815181840F951F24
:10271000C817D90761F44E5F5F4F88819981480FD0
:10272000591F518340838A819B8193838283211522
:10273000310509F0B0CFF093A404E093A3049ECF39
:10274000FD01DC01C0CF13821282D7CFB0E0A0E040
:10275000ECEAF3E10C940A118C01009751F4CB01DF
:102760000E9481128C01C801CDB7DEB7E0E10C9464
:102770002611FC01E60FF71F9C0122503109E217D8
:10278000F30708F49DC0D901CD91DC911197C617CC
:10279000D70798F0C530D10530F3CE0104978617DE
:1027A000970708F3C61BD70B2297C193D1936D935C
:1027B0007C93CF010E941D13D6CF5B01AC1ABD0ADA
:1027C0004C018C0E9D1EA091A304B091A404512C29
:1027D000412CF12CE12C109731F58091A1049091BE
:1027E000A2048815990509F05CC04616570608F042
:1027F00058C08091040190910501009741F48DB774
:102800009EB74091080150910901841B950BE81770
:10281000F90708F055C0F093A204E093A104F90170
:1028200071836083A0CF8D919C91119712966C90CB
:10283000129713967C901397A815B90559F56C015A
:1028400042E0C40ED11CCA14DB0420F1AC014A19C9
:102850005B09DA011296159780F0628273825183C8
:102860004083D9016D937C93E114F10471F0D70199
:102870001396FC93EE93129776CF22968C0F9D1FA2
:10288000F90191838083F301EFCFF093A404E093E7
:10289000A30469CF4816590608F42C017D01D30121
:1028A0009ACFCB010E9481127C01009749F0AE01C2
:1028B000B8010E946314C8010E941D13870153CF01
:1028C00010E000E050CFFB01DC0102C001900D924E
:1028D00041505040D8F70895FB01DC0101900D9262
:0A28E0000020E1F70895F894FFCFFF
:1028EA00000034430000A504800000000000360305
:1028FA009602C3028303F402D202E6020000000039
:10290A00500896024B054A05546D61783D004865AA
:10291A0061743D4F6666200054656D703D004865E0
:10292A0061743D4F66662054633D0041633D4E6FBE
:10293A006E652020004D6F3D4F6666200050776D12
:10294A00004D616E7520004E6F726D00537472698E
:10295A0070200050776D200046696C6D2000486F2A
:10296A006D652000205045542052454359434C4937
:10297A004E47200059743A20404D2E534B68616EE1
:0A298A00313233002020202000002D
:00000001FF
